{
  "contractName": "Votacao",
  "abi": [
    {
      "constant": true,
      "inputs": [
        {
          "name": "",
          "type": "uint256"
        }
      ],
      "name": "listaCandidatos",
      "outputs": [
        {
          "name": "",
          "type": "bytes32"
        }
      ],
      "payable": false,
      "stateMutability": "view",
      "type": "function"
    },
    {
      "constant": true,
      "inputs": [
        {
          "name": "",
          "type": "bytes32"
        }
      ],
      "name": "votosRecebidos",
      "outputs": [
        {
          "name": "",
          "type": "uint8"
        }
      ],
      "payable": false,
      "stateMutability": "view",
      "type": "function"
    },
    {
      "inputs": [
        {
          "name": "nomesCandidatos",
          "type": "bytes32[]"
        }
      ],
      "payable": false,
      "stateMutability": "nonpayable",
      "type": "constructor"
    },
    {
      "constant": true,
      "inputs": [
        {
          "name": "candidato",
          "type": "bytes32"
        }
      ],
      "name": "totalVotosPara",
      "outputs": [
        {
          "name": "",
          "type": "uint8"
        }
      ],
      "payable": false,
      "stateMutability": "view",
      "type": "function"
    },
    {
      "constant": false,
      "inputs": [
        {
          "name": "candidato",
          "type": "bytes32"
        }
      ],
      "name": "votoParaCandidato",
      "outputs": [],
      "payable": false,
      "stateMutability": "nonpayable",
      "type": "function"
    },
    {
      "constant": true,
      "inputs": [
        {
          "name": "candidato",
          "type": "bytes32"
        }
      ],
      "name": "candidatoValido",
      "outputs": [
        {
          "name": "",
          "type": "bool"
        }
      ],
      "payable": false,
      "stateMutability": "view",
      "type": "function"
    }
  ],
  "bytecode": "0x608060405234801561001057600080fd5b50604051610412380380610412833981018060405281019080805182019291905050508060019080519060200190610049929190610050565b50506100c8565b828054828255906000526020600020908101928215610092579160200282015b82811115610091578251829060001916905591602001919060010190610070565b5b50905061009f91906100a3565b5090565b6100c591905b808211156100c15760008160009055506001016100a9565b5090565b90565b61033b806100d76000396000f30060806040526004361061006d576000357c0100000000000000000000000000000000000000000000000000000000900463ffffffff1680633ce6fa441461007257806367745624146100bb57806377498cab146100ec578063a2873c7214610137578063a987f17c14610182575b600080fd5b34801561007e57600080fd5b5061009d600480360381019080803590602001909291905050506101cb565b60405180826000191660001916815260200191505060405180910390f35b3480156100c757600080fd5b506100ea60048036038101908080356000191690602001909291905050506101ee565b005b3480156100f857600080fd5b5061011b600480360381019080803560001916906020019092919050505061024b565b604051808260ff1660ff16815260200191505060405180910390f35b34801561014357600080fd5b506101666004803603810190808035600019169060200190929190505050610290565b604051808260ff1660ff16815260200191505060405180910390f35b34801561018e57600080fd5b506101b160048036038101908080356000191690602001909291905050506102b0565b604051808215151515815260200191505060405180910390f35b6001818154811015156101da57fe5b906000526020600020016000915090505481565b6101f7816102b0565b151561020257600080fd5b6001600080836000191660001916815260200190815260200160002060008282829054906101000a900460ff160192506101000a81548160ff021916908360ff16021790555050565b6000610256826102b0565b151561026157600080fd5b600080836000191660001916815260200190815260200160002060009054906101000a900460ff169050919050565b60006020528060005260406000206000915054906101000a900460ff1681565b600080600090505b6001805490508110156103045782600019166001828154811015156102d957fe5b90600052602060002001546000191614156102f75760019150610309565b80806001019150506102b8565b600091505b509190505600a165627a7a723058208e3d37698a23f76d58ebe7fa10e72fd22bfdaa928adc9fdef57888b862e452970029",
  "source": "pragma solidity ^0.4.18;\r\n// Deve ser especificada qual a versão do compilador que será utilizada para compilar este código\r\n\r\ncontract Votacao {\r\n  // O mapeamento de campos abaixo é equivalente à um array associativo ou hash.\r\n  // A chave do mapeamento é o nome do candidato, armazenado como tipo bytes32 e o valor é um número inteiro que armazena a contagem de votos\r\n  \r\n  mapping (bytes32 => uint8) public votosRecebidos;\r\n  \r\n  // O Solidity ainda não permite passar um array de strings no constructor. Sendo assim, utilizamos um array de bytes32 para armazenar a lista de candidatos:  \r\n  bytes32[] public listaCandidatos;\r\n\r\n  // Este é o construtor que será chamado uma vez, quando for feito o deploy do contrato no blockchain. No deploy do contrato, deve ser passada a lista de candidatos que estarão disputando na eleição:  \r\n  function Votacao(bytes32[] nomesCandidatos) public {\r\n    listaCandidatos = nomesCandidatos;\r\n  }\r\n\r\n  // Esta função retorna o total de votos que um candidato recebeu até o momento:\r\n  function totalVotosPara(bytes32 candidato) view public returns (uint8) {\r\n    require(candidatoValido(candidato));\r\n    return votosRecebidos[candidato];\r\n  }\r\n\r\n  // Esta função incrementa a contagem de votos para o candidato especificado. Isso é equivalente a votar:\r\n  function votoParaCandidato(bytes32 candidato) public {\r\n    require(candidatoValido(candidato));\r\n    votosRecebidos[candidato] += 1;\r\n  }\r\n\r\n  function candidatoValido(bytes32 candidato) view public returns (bool) {\r\n    for(uint i = 0; i < listaCandidatos.length; i++) {\r\n      if (listaCandidatos[i] == candidato) {\r\n        return true;\r\n      }\r\n    }\r\n    return false;\r\n  }\r\n}",
  "sourcePath": "C:\\Users\\Gustavo\\Blockchain\\Votacao\\contracts\\Votacao.sol",
  "compiler": {
    "name": "solc",
    "version": "0.4.23+commit.124ca40d.Emscripten.clang"
  },
  "schemaVersion": "2.0.1",
  "updatedAt": "2018-07-11T16:12:32.232Z"
}